:04000000A3EF03F077
:10030000002A2A2A20554152542053544152542045
:100310002A2A2A2A002A2A2A2A2A2A2A2A2A2A2A67
:100320002A2A2A2A2A2A2A2A0052786461746120F9
:100330003D200000000E126E000E116E0AC015F076
:100340000BC016F00A0E0C180D10D8A4AAEF01F07D
:10035000ACEF01F019EF02F0270E146E100E136EC1
:1003600015C001F016C002F013C003F014C004F071
:10037000F2EC02F001C015F002C016F0115012109C
:10038000D8A4C5EF01F0C7EF01F0E2EF01F015507E
:100390001610D8B4CEEF01F0D0EF01F0EEEF01F07F
:1003A000340E1524D96E000E1620DA6E08C0E1FF57
:1003B00009C0E2FFDFCFE7FF000E126E010E116EE3
:1003C000EEEF01F0340E1524D96E000E1620DA6E11
:1003D00008C0E1FF09C0E2FFDFCFE7FF15C001F071
:1003E00016C002F013C003F014C004F0CDEC03F00B
:1003F00001500A5C156E02500B58166E084A092A05
:1004000013C001F014C002F0000E046E0A0E036E59
:10041000F2EC02F001C013F002C014F013501410FB
:10042000D8A415EF02F017EF02F0B0EF01F090EF53
:1004300002F008C0D9FF09C0DAFF300EDF6E084AAB
:10044000092A08C0D9FF09C0DAFF780EDF6E084A12
:10045000092A0AC00EF00BC00FF00C0E106ED890D7
:100460000F320E32102E2FEF02F00F0E0E14156EFB
:10047000166A340E1524D96E000E1620DA6E08C0E6
:10048000E1FF09C0E2FFDFCFE7FF084A092A0AC0FF
:100490000EF00BC00FF00FC00EF00F6A0F0E0E140F
:1004A000156E166A340E1524D96E000E1620DA6EFB
:1004B00008C0E1FF09C0E2FFDFCFE7FF084A092AD1
:1004C0000AC00EF00BC00FF0040E106ED8900F3261
:1004D0000E32102E66EF02F00F0E0E14156E166A15
:1004E000340E1524D96E000E1620DA6E08C0E1FF16
:1004F00009C0E2FFDFCFE7FF084A092A0F0E0A14FE
:10050000156E166A340E1524D96E000E1620DA6E9A
:1005100008C0E1FF09C0E2FFDFCFE7FF084A092A70
:1005200008C0D9FF09C0DAFFDF6A12006A0ED36E75
:10053000000E7E6E000E7F6E200E926E020E936E87
:10054000240EAC6E900EAB6E000EB86E330EAF6E16
:10055000000E026E640E016E88EC03F0150E036E41
:10056000030E046E000E066E010E056EE0EC03F045
:10057000010E036E030E046E000E066E010E056E74
:10058000E0EC03F0150E036E030E046E000E066E13
:10059000010E056EE0EC03F0F2EC03F0336E335025
:1005A000D8B4D5EF02F0D7EF02F0E8EF02F0290E51
:1005B000176E030E186E33C019F01A6A000E1C6E07
:1005C000010E1B6E000E1E6E100E1D6E62EC03F00F
:1005D000000E026E640E016E88EC03F0CCEF02F0A8
:1005E00000EF00F0000E066E000E056E03500410C2
:1005F000D8B4FDEF02F0FFEF02F027EF03F0010E99
:10060000076E07EF03F0D89003360436072A04AECE
:100610000CEF03F00EEF03F003EF03F0D890053674
:1006200006360350015C04500258D8A01AEF03F0BC
:100630001CEF03F021EF03F00350015E0450025A57
:100640000580D89004320332072E0EEF03F005C068
:1006500001F006C002F0120049EF03F09EA833EF4C
:1006600003F035EF03F02EEF03F001C0F6FF02C0F8
:10067000F7FFF86A020EF76403D00800F55005D0C2
:10068000F6CFE9FFF7CFEAFFEF50AD6EAD50014A6C
:10069000022A01C0F6FF02C0F7FFF86A020EF764F3
:1006A00003D00800F55005D0F6CFE9FFF7CFEAFFF9
:1006B000EF500009D8A45FEF03F061EF03F02EEFD5
:1006C00003F0120017C001F018C002F02CEC03F088
:1006D0001F0E086E000E096E19C00AF01AC00BF04A
:1006E0001DC00CF01EC00DF09AEC01F01F0E016E43
:1006F000000E026E2CEC03F01B041C10D8A483EF38
:1007000003F085EF03F087EF03F0B8EC03F012007D
:10071000000E056E000E046E97EF03F00D0E036ED3
:10072000FC0EE82EFED7032EFCD7044A052A015002
:10073000045C02500558D8A0A0EF03F0A2EF03F02C
:100740008EEF03F01200020EF66E080EF76E000E2A
:10075000F86E00EE34F010EE10F00900F5CFEEFF69
:10076000E550E150FAE1000EF86E000196EF02F05C
:100770009EA8BDEF03F0BFEF03F0B8EF03F00D0E3E
:10078000AD6EAD509EA8C7EF03F0C9EF03F0C2EF06
:1007900003F00A0EAD6EAD50120001500302F3CF0C
:1007A00005F0F4CF06F001500402F3500626025083
:1007B0000302F350062605C001F006C002F0120045
:1007C00003C001F004C002F02CEC03F00504061095
:1007D000D8A4EDEF03F0EFEF03F0F1EF03F0B8EC86
:1007E00003F012009EAAF7EF03F0F9EF03F0FDEF1C
:1007F00003F0AECF01F0FFEF03F0000E016E0150E9
:10080000120030313233343536373839616263643F
:0208100065661B
:020000040020DA
:08000000FFFFFFFFFFFFFFFF00
:020000040030CA
:0E0000000038011EFF0081FF03C003E0034033
:00000001FF
